:100000000C9434000C943E000C943E000C943E0082
:100010000C943E000C943E000C943E000C943E0068
:100020000C943E000C943E000C943E000C943E0058
:100030000C943E000C943E000C943E000C943E0048
:100040000C943E000C943E000C943E000C943E0038
:100050000C943E000C943E000C943E000C943E0028
:100060000C943E000C943E0011241FBECFEFD8E04C
:10007000DEBFCDBF0E9440000C9460000C940000D5
:100080006FEF53E649E034E62EE192E36AB954BDDE
:1000900045BD37BD28BD789498BD88B58536B0F785
:1000A0007FEF81EEE4E071508040E040E1F700C076
:1000B000000088B58F5F88BD88B5853688F3E6CFA8
:0400C000F894FFCFE2
:00000001FF
